{
  "_format": "hh-sol-artifact-1",
  "contractName": "LendingPool",
  "sourceName": "contracts/LendingPool.sol",
  "abi": [
    {
      "inputs": [
        {
          "internalType": "address",
          "name": "_tokenAddress",
          "type": "address"
        },
        {
          "internalType": "address payable",
          "name": "_poolStorageAddress",
          "type": "address"
        }
      ],
      "stateMutability": "nonpayable",
      "type": "constructor"
    },
    {
      "inputs": [
        {
          "internalType": "address",
          "name": "owner",
          "type": "address"
        }
      ],
      "name": "OwnableInvalidOwner",
      "type": "error"
    },
    {
      "inputs": [
        {
          "internalType": "address",
          "name": "account",
          "type": "address"
        }
      ],
      "name": "OwnableUnauthorizedAccount",
      "type": "error"
    },
    {
      "anonymous": false,
      "inputs": [
        {
          "indexed": true,
          "internalType": "address",
          "name": "previousOwner",
          "type": "address"
        },
        {
          "indexed": true,
          "internalType": "address",
          "name": "newOwner",
          "type": "address"
        }
      ],
      "name": "OwnershipTransferred",
      "type": "event"
    },
    {
      "inputs": [
        {
          "internalType": "address",
          "name": "",
          "type": "address"
        }
      ],
      "name": "BorrowingList",
      "outputs": [
        {
          "internalType": "address",
          "name": "user",
          "type": "address"
        },
        {
          "internalType": "uint256",
          "name": "debtAmount",
          "type": "uint256"
        },
        {
          "internalType": "uint256",
          "name": "amountToRepay",
          "type": "uint256"
        }
      ],
      "stateMutability": "view",
      "type": "function"
    },
    {
      "inputs": [
        {
          "internalType": "address",
          "name": "",
          "type": "address"
        }
      ],
      "name": "LendingList",
      "outputs": [
        {
          "internalType": "address",
          "name": "user",
          "type": "address"
        },
        {
          "internalType": "uint256",
          "name": "etherBalance",
          "type": "uint256"
        },
        {
          "internalType": "uint256",
          "name": "tokenReceived",
          "type": "uint256"
        }
      ],
      "stateMutability": "view",
      "type": "function"
    },
    {
      "inputs": [],
      "name": "Supply",
      "outputs": [],
      "stateMutability": "payable",
      "type": "function"
    },
    {
      "inputs": [
        {
          "internalType": "uint256",
          "name": "weiAmount",
          "type": "uint256"
        }
      ],
      "name": "borrow",
      "outputs": [],
      "stateMutability": "payable",
      "type": "function"
    },
    {
      "inputs": [
        {
          "internalType": "uint256",
          "name": "",
          "type": "uint256"
        }
      ],
      "name": "borrowingUsers",
      "outputs": [
        {
          "internalType": "address",
          "name": "",
          "type": "address"
        }
      ],
      "stateMutability": "view",
      "type": "function"
    },
    {
      "inputs": [
        {
          "internalType": "address",
          "name": "user",
          "type": "address"
        }
      ],
      "name": "getBorrowingData",
      "outputs": [
        {
          "components": [
            {
              "internalType": "address",
              "name": "user",
              "type": "address"
            },
            {
              "internalType": "uint256",
              "name": "debtAmount",
              "type": "uint256"
            },
            {
              "internalType": "uint256",
              "name": "amountToRepay",
              "type": "uint256"
            }
          ],
          "internalType": "struct DataStruct.BorrowingData",
          "name": "",
          "type": "tuple"
        }
      ],
      "stateMutability": "view",
      "type": "function"
    },
    {
      "inputs": [
        {
          "internalType": "address",
          "name": "user",
          "type": "address"
        }
      ],
      "name": "getLendingData",
      "outputs": [
        {
          "components": [
            {
              "internalType": "address",
              "name": "user",
              "type": "address"
            },
            {
              "internalType": "uint256",
              "name": "etherBalance",
              "type": "uint256"
            },
            {
              "internalType": "uint256",
              "name": "tokenReceived",
              "type": "uint256"
            }
          ],
          "internalType": "struct DataStruct.LendingData",
          "name": "",
          "type": "tuple"
        }
      ],
      "stateMutability": "view",
      "type": "function"
    },
    {
      "inputs": [
        {
          "internalType": "address",
          "name": "user",
          "type": "address"
        }
      ],
      "name": "getMaxBorrow",
      "outputs": [
        {
          "internalType": "uint256",
          "name": "",
          "type": "uint256"
        }
      ],
      "stateMutability": "view",
      "type": "function"
    },
    {
      "inputs": [
        {
          "internalType": "uint256",
          "name": "",
          "type": "uint256"
        }
      ],
      "name": "lendingUsers",
      "outputs": [
        {
          "internalType": "address",
          "name": "",
          "type": "address"
        }
      ],
      "stateMutability": "view",
      "type": "function"
    },
    {
      "inputs": [],
      "name": "owner",
      "outputs": [
        {
          "internalType": "address",
          "name": "",
          "type": "address"
        }
      ],
      "stateMutability": "view",
      "type": "function"
    },
    {
      "inputs": [],
      "name": "poolStorage",
      "outputs": [
        {
          "internalType": "contract PoolStorage",
          "name": "",
          "type": "address"
        }
      ],
      "stateMutability": "view",
      "type": "function"
    },
    {
      "inputs": [],
      "name": "renounceOwnership",
      "outputs": [],
      "stateMutability": "nonpayable",
      "type": "function"
    },
    {
      "inputs": [],
      "name": "repay",
      "outputs": [],
      "stateMutability": "payable",
      "type": "function"
    },
    {
      "inputs": [],
      "name": "token",
      "outputs": [
        {
          "internalType": "contract IERC20",
          "name": "",
          "type": "address"
        }
      ],
      "stateMutability": "view",
      "type": "function"
    },
    {
      "inputs": [],
      "name": "tokenRate",
      "outputs": [
        {
          "internalType": "uint256",
          "name": "",
          "type": "uint256"
        }
      ],
      "stateMutability": "view",
      "type": "function"
    },
    {
      "inputs": [
        {
          "internalType": "address",
          "name": "newOwner",
          "type": "address"
        }
      ],
      "name": "transferOwnership",
      "outputs": [],
      "stateMutability": "nonpayable",
      "type": "function"
    },
    {
      "inputs": [
        {
          "internalType": "uint256",
          "name": "weiAmount",
          "type": "uint256"
        }
      ],
      "name": "withdraw",
      "outputs": [],
      "stateMutability": "payable",
      "type": "function"
    }
  ],
  "bytecode": "0x6080604052670de0b6b3a76400006006553480156200001d57600080fd5b5060405162002e7e38038062002e7e8339818101604052810190620000439190620002c8565b33600073ffffffffffffffffffffffffffffffffffffffff168173ffffffffffffffffffffffffffffffffffffffff1603620000b95760006040517f1e4fbdf7000000000000000000000000000000000000000000000000000000008152600401620000b0919062000320565b60405180910390fd5b620000ca816200015560201b60201c565b5081600160006101000a81548173ffffffffffffffffffffffffffffffffffffffff021916908373ffffffffffffffffffffffffffffffffffffffff16021790555080600760006101000a81548173ffffffffffffffffffffffffffffffffffffffff021916908373ffffffffffffffffffffffffffffffffffffffff16021790555050506200033d565b60008060009054906101000a900473ffffffffffffffffffffffffffffffffffffffff169050816000806101000a81548173ffffffffffffffffffffffffffffffffffffffff021916908373ffffffffffffffffffffffffffffffffffffffff1602179055508173ffffffffffffffffffffffffffffffffffffffff168173ffffffffffffffffffffffffffffffffffffffff167f8be0079c531659141344cd1fd0a4f28419497f9722a3daafe3b4186f6b6457e060405160405180910390a35050565b600080fd5b600073ffffffffffffffffffffffffffffffffffffffff82169050919050565b60006200024b826200021e565b9050919050565b6200025d816200023e565b81146200026957600080fd5b50565b6000815190506200027d8162000252565b92915050565b600062000290826200021e565b9050919050565b620002a28162000283565b8114620002ae57600080fd5b50565b600081519050620002c28162000297565b92915050565b60008060408385031215620002e257620002e162000219565b5b6000620002f2858286016200026c565b92505060206200030585828601620002b1565b9150509250929050565b6200031a816200023e565b82525050565b60006020820190506200033760008301846200030f565b92915050565b612b31806200034d6000396000f3fe6080604052600436106100fe5760003560e01c80638da5cb5b11610095578063ee07bf2211610064578063ee07bf2214610312578063f2fde38b1461031c578063fc0c546a14610345578063fd1c317a14610370578063fe98145a146103ad576100fe565b80638da5cb5b14610263578063bc81316f1461028e578063c5ebeaec146102b9578063c67fcd72146102d5576100fe565b806331711884116100d157806331711884146101d85780633fb23dfd14610203578063402d888314610242578063715018a61461024c576100fe565b806317cbc56514610103578063215516231461014057806322e0e56a1461017d5780632e1a7d4d146101bc575b600080fd5b34801561010f57600080fd5b5061012a60048036038101906101259190611fcf565b6103ea565b604051610137919061203d565b60405180910390f35b34801561014c57600080fd5b5061016760048036038101906101629190612084565b610429565b6040516101749190612111565b60405180910390f35b34801561018957600080fd5b506101a4600480360381019061019f9190612084565b6104ec565b6040516101b39392919061213b565b60405180910390f35b6101d660048036038101906101d19190611fcf565b610536565b005b3480156101e457600080fd5b506101ed610b5b565b6040516101fa9190612172565b60405180910390f35b34801561020f57600080fd5b5061022a60048036038101906102259190612084565b610b61565b6040516102399392919061213b565b60405180910390f35b61024a610bab565b005b34801561025857600080fd5b50610261610fde565b005b34801561026f57600080fd5b50610278610ff2565b604051610285919061203d565b60405180910390f35b34801561029a57600080fd5b506102a361101b565b6040516102b091906121ec565b60405180910390f35b6102d360048036038101906102ce9190611fcf565b611041565b005b3480156102e157600080fd5b506102fc60048036038101906102f79190611fcf565b61160e565b604051610309919061203d565b60405180910390f35b61031a61164d565b005b34801561032857600080fd5b50610343600480360381019061033e9190612084565b611a73565b005b34801561035157600080fd5b5061035a611af9565b604051610367919061223a565b60405180910390f35b34801561037c57600080fd5b5061039760048036038101906103929190612084565b611b1f565b6040516103a49190612172565b60405180910390f35b3480156103b957600080fd5b506103d460048036038101906103cf9190612084565b611c03565b6040516103e19190612297565b60405180910390f35b600481815481106103fa57600080fd5b906000526020600020016000915054906101000a900473ffffffffffffffffffffffffffffffffffffffff1681565b610431611f26565b600260008373ffffffffffffffffffffffffffffffffffffffff1673ffffffffffffffffffffffffffffffffffffffff1681526020019081526020016000206040518060600160405290816000820160009054906101000a900473ffffffffffffffffffffffffffffffffffffffff1673ffffffffffffffffffffffffffffffffffffffff1673ffffffffffffffffffffffffffffffffffffffff168152602001600182015481526020016002820154815250509050919050565b60036020528060005260406000206000915090508060000160009054906101000a900473ffffffffffffffffffffffffffffffffffffffff16908060010154908060020154905083565b6000600260003373ffffffffffffffffffffffffffffffffffffffff1673ffffffffffffffffffffffffffffffffffffffff1681526020019081526020016000206040518060600160405290816000820160009054906101000a900473ffffffffffffffffffffffffffffffffffffffff1673ffffffffffffffffffffffffffffffffffffffff1673ffffffffffffffffffffffffffffffffffffffff1681526020016001820154815260200160028201548152505090506000670de0b6b3a7640000600654846106079190612310565b6106119190612341565b9050828260200151101561065a576040517f08c379a0000000000000000000000000000000000000000000000000000000008152600401610651906123e0565b60405180910390fd5b80600160009054906101000a900473ffffffffffffffffffffffffffffffffffffffff1673ffffffffffffffffffffffffffffffffffffffff166370a08231336040518263ffffffff1660e01b81526004016106b6919061203d565b602060405180830381865afa1580156106d3573d6000803e3d6000fd5b505050506040513d601f19601f820116820180604052508101906106f79190612415565b1015610738576040517f08c379a000000000000000000000000000000000000000000000000000000000815260040161072f906124b4565b60405180910390fd5b600160009054906101000a900473ffffffffffffffffffffffffffffffffffffffff1673ffffffffffffffffffffffffffffffffffffffff166323b872dd3361077f610ff2565b846040518463ffffffff1660e01b815260040161079e939291906124d4565b6020604051808303816000875af11580156107bd573d6000803e3d6000fd5b505050506040513d601f19601f820116820180604052508101906107e19190612543565b5082826020018181516107f49190612570565b91508181525050808260400181815161080d9190612570565b915081815250506000826020015103610a2557600260003373ffffffffffffffffffffffffffffffffffffffff1673ffffffffffffffffffffffffffffffffffffffff168152602001908152602001600020600080820160006101000a81549073ffffffffffffffffffffffffffffffffffffffff021916905560018201600090556002820160009055505060005b600480549050811015610a1f573373ffffffffffffffffffffffffffffffffffffffff16600482815481106108d4576108d36125a4565b5b9060005260206000200160009054906101000a900473ffffffffffffffffffffffffffffffffffffffff1673ffffffffffffffffffffffffffffffffffffffff1603610a12576004600160048054905061092e9190612570565b8154811061093f5761093e6125a4565b5b9060005260206000200160009054906101000a900473ffffffffffffffffffffffffffffffffffffffff166004828154811061097e5761097d6125a4565b5b9060005260206000200160006101000a81548173ffffffffffffffffffffffffffffffffffffffff021916908373ffffffffffffffffffffffffffffffffffffffff16021790555060048054806109d8576109d76125d3565b5b6001900381819060005260206000200160006101000a81549073ffffffffffffffffffffffffffffffffffffffff02191690559055610a1f565b808060010191505061089c565b50610ac4565b81600260003373ffffffffffffffffffffffffffffffffffffffff1673ffffffffffffffffffffffffffffffffffffffff16815260200190815260200160002060008201518160000160006101000a81548173ffffffffffffffffffffffffffffffffffffffff021916908373ffffffffffffffffffffffffffffffffffffffff16021790555060208201518160010155604082015181600201559050505b600760009054906101000a900473ffffffffffffffffffffffffffffffffffffffff1673ffffffffffffffffffffffffffffffffffffffff16631d54df9c338560006040518463ffffffff1660e01b8152600401610b2493929190612632565b600060405180830381600087803b158015610b3e57600080fd5b505af1158015610b52573d6000803e3d6000fd5b50505050505050565b60065481565b60026020528060005260406000206000915090508060000160009054906101000a900473ffffffffffffffffffffffffffffffffffffffff16908060010154908060020154905083565b60003490506000600360003373ffffffffffffffffffffffffffffffffffffffff1673ffffffffffffffffffffffffffffffffffffffff16815260200190815260200160002090506000816001015411610c3a576040517f08c379a0000000000000000000000000000000000000000000000000000000008152600401610c31906126b5565b60405180910390fd5b6000816002015411610c81576040517f08c379a0000000000000000000000000000000000000000000000000000000008152600401610c7890612721565b60405180910390fd5b8060020154821115610cc8576040517f08c379a0000000000000000000000000000000000000000000000000000000008152600401610cbf9061278d565b60405180910390fd5b81816002016000828254610cdc9190612570565b9250508190555081816001016000828254610cf79190612570565b925050819055506000600760009054906101000a900473ffffffffffffffffffffffffffffffffffffffff1673ffffffffffffffffffffffffffffffffffffffff1683604051610d46906127de565b60006040518083038185875af1925050503d8060008114610d83576040519150601f19603f3d011682016040523d82523d6000602084013e610d88565b606091505b5050905080610dcc576040517f08c379a0000000000000000000000000000000000000000000000000000000008152600401610dc390612865565b60405180910390fd5b6000826002015403610fd957600360003373ffffffffffffffffffffffffffffffffffffffff1673ffffffffffffffffffffffffffffffffffffffff168152602001908152602001600020600080820160006101000a81549073ffffffffffffffffffffffffffffffffffffffff021916905560018201600090556002820160009055505060005b600580549050811015610fd7573373ffffffffffffffffffffffffffffffffffffffff1660058281548110610e8c57610e8b6125a4565b5b9060005260206000200160009054906101000a900473ffffffffffffffffffffffffffffffffffffffff1673ffffffffffffffffffffffffffffffffffffffff1603610fca5760056001600580549050610ee69190612570565b81548110610ef757610ef66125a4565b5b9060005260206000200160009054906101000a900473ffffffffffffffffffffffffffffffffffffffff1660058281548110610f3657610f356125a4565b5b9060005260206000200160006101000a81548173ffffffffffffffffffffffffffffffffffffffff021916908373ffffffffffffffffffffffffffffffffffffffff1602179055506005805480610f9057610f8f6125d3565b5b6001900381819060005260206000200160006101000a81549073ffffffffffffffffffffffffffffffffffffffff02191690559055610fd7565b8080600101915050610e54565b505b505050565b610fe6611cc6565b610ff06000611d4d565b565b60008060009054906101000a900473ffffffffffffffffffffffffffffffffffffffff16905090565b600760009054906101000a900473ffffffffffffffffffffffffffffffffffffffff1681565b600060646004836110529190612341565b61105c9190612310565b9050600073ffffffffffffffffffffffffffffffffffffffff16600360003373ffffffffffffffffffffffffffffffffffffffff1673ffffffffffffffffffffffffffffffffffffffff16815260200190815260200160002060000160009054906101000a900473ffffffffffffffffffffffffffffffffffffffff1673ffffffffffffffffffffffffffffffffffffffff161461127e576110fd33611b1f565b600360003373ffffffffffffffffffffffffffffffffffffffff1673ffffffffffffffffffffffffffffffffffffffff1681526020019081526020016000206001015410611180576040517f08c379a0000000000000000000000000000000000000000000000000000000008152600401611177906128d1565b60405180910390fd5b61118933611b1f565b82600360003373ffffffffffffffffffffffffffffffffffffffff1673ffffffffffffffffffffffffffffffffffffffff168152602001908152602001600020600101546111d791906128f1565b1115611218576040517f08c379a000000000000000000000000000000000000000000000000000000000815260040161120f90612971565b60405180910390fd5b81600360003373ffffffffffffffffffffffffffffffffffffffff1673ffffffffffffffffffffffffffffffffffffffff168152602001908152602001600020600101600082825461126a91906128f1565b92505081905550611279611e11565b611578565b600073ffffffffffffffffffffffffffffffffffffffff16600260003373ffffffffffffffffffffffffffffffffffffffff1673ffffffffffffffffffffffffffffffffffffffff16815260200190815260200160002060000160009054906101000a900473ffffffffffffffffffffffffffffffffffffffff1673ffffffffffffffffffffffffffffffffffffffff16141580156113ab5750600073ffffffffffffffffffffffffffffffffffffffff16600360003373ffffffffffffffffffffffffffffffffffffffff1673ffffffffffffffffffffffffffffffffffffffff16815260200190815260200160002060000160009054906101000a900473ffffffffffffffffffffffffffffffffffffffff1673ffffffffffffffffffffffffffffffffffffffff16145b1561153c576113b933611b1f565b8211156113fb576040517f08c379a00000000000000000000000000000000000000000000000000000000081526004016113f2906129dd565b60405180910390fd5b60405180606001604052803373ffffffffffffffffffffffffffffffffffffffff168152602001838152602001838361143491906128f1565b815250600360003373ffffffffffffffffffffffffffffffffffffffff1673ffffffffffffffffffffffffffffffffffffffff16815260200190815260200160002060008201518160000160006101000a81548173ffffffffffffffffffffffffffffffffffffffff021916908373ffffffffffffffffffffffffffffffffffffffff16021790555060208201518160010155604082015181600201559050506005339080600181540180825580915050600190039060005260206000200160009091909190916101000a81548173ffffffffffffffffffffffffffffffffffffffff021916908373ffffffffffffffffffffffffffffffffffffffff160217905550611577565b6040517f08c379a000000000000000000000000000000000000000000000000000000000815260040161156e90612a49565b60405180910390fd5b5b600760009054906101000a900473ffffffffffffffffffffffffffffffffffffffff1673ffffffffffffffffffffffffffffffffffffffff16631d54df9c338460016040518463ffffffff1660e01b81526004016115d893929190612632565b600060405180830381600087803b1580156115f257600080fd5b505af1158015611606573d6000803e3d6000fd5b505050505050565b6005818154811061161e57600080fd5b906000526020600020016000915054906101000a900473ffffffffffffffffffffffffffffffffffffffff1681565b60003490506000670de0b6b3a76400006006548361166b9190612310565b6116759190612341565b9050600160009054906101000a900473ffffffffffffffffffffffffffffffffffffffff1673ffffffffffffffffffffffffffffffffffffffff166323b872dd6116bd610ff2565b33846040518463ffffffff1660e01b81526004016116dd939291906124d4565b6020604051808303816000875af11580156116fc573d6000803e3d6000fd5b505050506040513d601f19601f820116820180604052508101906117209190612543565b506000600760009054906101000a900473ffffffffffffffffffffffffffffffffffffffff1673ffffffffffffffffffffffffffffffffffffffff1683604051611769906127de565b60006040518083038185875af1925050503d80600081146117a6576040519150601f19603f3d011682016040523d82523d6000602084013e6117ab565b606091505b50509050806117ef576040517f08c379a00000000000000000000000000000000000000000000000000000000081526004016117e690612adb565b60405180910390fd5b600073ffffffffffffffffffffffffffffffffffffffff16600260003373ffffffffffffffffffffffffffffffffffffffff1673ffffffffffffffffffffffffffffffffffffffff16815260200190815260200160002060000160009054906101000a900473ffffffffffffffffffffffffffffffffffffffff1673ffffffffffffffffffffffffffffffffffffffff16036119bb5760405180606001604052803373ffffffffffffffffffffffffffffffffffffffff16815260200184815260200183815250600260003373ffffffffffffffffffffffffffffffffffffffff1673ffffffffffffffffffffffffffffffffffffffff16815260200190815260200160002060008201518160000160006101000a81548173ffffffffffffffffffffffffffffffffffffffff021916908373ffffffffffffffffffffffffffffffffffffffff16021790555060208201518160010155604082015181600201559050506004339080600181540180825580915050600190039060005260206000200160009091909190916101000a81548173ffffffffffffffffffffffffffffffffffffffff021916908373ffffffffffffffffffffffffffffffffffffffff160217905550611a6e565b82600260003373ffffffffffffffffffffffffffffffffffffffff1673ffffffffffffffffffffffffffffffffffffffff1681526020019081526020016000206001016000828254611a0d91906128f1565b9250508190555081600260003373ffffffffffffffffffffffffffffffffffffffff1673ffffffffffffffffffffffffffffffffffffffff1681526020019081526020016000206002016000828254611a6691906128f1565b925050819055505b505050565b611a7b611cc6565b600073ffffffffffffffffffffffffffffffffffffffff168173ffffffffffffffffffffffffffffffffffffffff1603611aed5760006040517f1e4fbdf7000000000000000000000000000000000000000000000000000000008152600401611ae4919061203d565b60405180910390fd5b611af681611d4d565b50565b600160009054906101000a900473ffffffffffffffffffffffffffffffffffffffff1681565b600080600260008473ffffffffffffffffffffffffffffffffffffffff1673ffffffffffffffffffffffffffffffffffffffff1681526020019081526020016000206040518060600160405290816000820160009054906101000a900473ffffffffffffffffffffffffffffffffffffffff1673ffffffffffffffffffffffffffffffffffffffff1673ffffffffffffffffffffffffffffffffffffffff1681526020016001820154815260200160028201548152505090506000606460508360200151611bed9190612341565b611bf79190612310565b90508092505050919050565b611c0b611f5d565b600360008373ffffffffffffffffffffffffffffffffffffffff1673ffffffffffffffffffffffffffffffffffffffff1681526020019081526020016000206040518060600160405290816000820160009054906101000a900473ffffffffffffffffffffffffffffffffffffffff1673ffffffffffffffffffffffffffffffffffffffff1673ffffffffffffffffffffffffffffffffffffffff168152602001600182015481526020016002820154815250509050919050565b611cce611f1e565b73ffffffffffffffffffffffffffffffffffffffff16611cec610ff2565b73ffffffffffffffffffffffffffffffffffffffff1614611d4b57611d0f611f1e565b6040517f118cdaa7000000000000000000000000000000000000000000000000000000008152600401611d42919061203d565b60405180910390fd5b565b60008060009054906101000a900473ffffffffffffffffffffffffffffffffffffffff169050816000806101000a81548173ffffffffffffffffffffffffffffffffffffffff021916908373ffffffffffffffffffffffffffffffffffffffff1602179055508173ffffffffffffffffffffffffffffffffffffffff168173ffffffffffffffffffffffffffffffffffffffff167f8be0079c531659141344cd1fd0a4f28419497f9722a3daafe3b4186f6b6457e060405160405180910390a35050565b6000600360003373ffffffffffffffffffffffffffffffffffffffff1673ffffffffffffffffffffffffffffffffffffffff1681526020019081526020016000206001015490506000600360003373ffffffffffffffffffffffffffffffffffffffff1673ffffffffffffffffffffffffffffffffffffffff16815260200190815260200160002060020154905060006064600484611eb09190612341565b611eba9190612310565b9050808284611ec991906128f1565b611ed391906128f1565b600360003373ffffffffffffffffffffffffffffffffffffffff1673ffffffffffffffffffffffffffffffffffffffff16815260200190815260200160002060020181905550505050565b600033905090565b6040518060600160405280600073ffffffffffffffffffffffffffffffffffffffff16815260200160008152602001600081525090565b6040518060600160405280600073ffffffffffffffffffffffffffffffffffffffff16815260200160008152602001600081525090565b600080fd5b6000819050919050565b611fac81611f99565b8114611fb757600080fd5b50565b600081359050611fc981611fa3565b92915050565b600060208284031215611fe557611fe4611f94565b5b6000611ff384828501611fba565b91505092915050565b600073ffffffffffffffffffffffffffffffffffffffff82169050919050565b600061202782611ffc565b9050919050565b6120378161201c565b82525050565b6000602082019050612052600083018461202e565b92915050565b6120618161201c565b811461206c57600080fd5b50565b60008135905061207e81612058565b92915050565b60006020828403121561209a57612099611f94565b5b60006120a88482850161206f565b91505092915050565b6120ba8161201c565b82525050565b6120c981611f99565b82525050565b6060820160008201516120e560008501826120b1565b5060208201516120f860208501826120c0565b50604082015161210b60408501826120c0565b50505050565b600060608201905061212660008301846120cf565b92915050565b61213581611f99565b82525050565b6000606082019050612150600083018661202e565b61215d602083018561212c565b61216a604083018461212c565b949350505050565b6000602082019050612187600083018461212c565b92915050565b6000819050919050565b60006121b26121ad6121a884611ffc565b61218d565b611ffc565b9050919050565b60006121c482612197565b9050919050565b60006121d6826121b9565b9050919050565b6121e6816121cb565b82525050565b600060208201905061220160008301846121dd565b92915050565b600061221282612197565b9050919050565b600061222482612207565b9050919050565b61223481612219565b82525050565b600060208201905061224f600083018461222b565b92915050565b60608201600082015161226b60008501826120b1565b50602082015161227e60208501826120c0565b50604082015161229160408501826120c0565b50505050565b60006060820190506122ac6000830184612255565b92915050565b7f4e487b7100000000000000000000000000000000000000000000000000000000600052601260045260246000fd5b7f4e487b7100000000000000000000000000000000000000000000000000000000600052601160045260246000fd5b600061231b82611f99565b915061232683611f99565b925082612336576123356122b2565b5b828204905092915050565b600061234c82611f99565b915061235783611f99565b925082820261236581611f99565b9150828204841483151761237c5761237b6122e1565b5b5092915050565b600082825260208201905092915050565b7f496e73756666696369656e742062616c616e636520746f207769746864726177600082015250565b60006123ca602083612383565b91506123d582612394565b602082019050919050565b600060208201905081810360008301526123f9816123bd565b9050919050565b60008151905061240f81611fa3565b92915050565b60006020828403121561242b5761242a611f94565b5b600061243984828501612400565b91505092915050565b7f496e73756666696369656e7420746f6b656e2062616c616e636520746f20726560008201527f7475726e00000000000000000000000000000000000000000000000000000000602082015250565b600061249e602483612383565b91506124a982612442565b604082019050919050565b600060208201905081810360008301526124cd81612491565b9050919050565b60006060820190506124e9600083018661202e565b6124f6602083018561202e565b612503604083018461212c565b949350505050565b60008115159050919050565b6125208161250b565b811461252b57600080fd5b50565b60008151905061253d81612517565b92915050565b60006020828403121561255957612558611f94565b5b60006125678482850161252e565b91505092915050565b600061257b82611f99565b915061258683611f99565b925082820390508181111561259e5761259d6122e1565b5b92915050565b7f4e487b7100000000000000000000000000000000000000000000000000000000600052603260045260246000fd5b7f4e487b7100000000000000000000000000000000000000000000000000000000600052603160045260246000fd5b600061260d82611ffc565b9050919050565b61261d81612602565b82525050565b61262c8161250b565b82525050565b60006060820190506126476000830186612614565b612654602083018561212c565b6126616040830184612623565b949350505050565b7f4e6f206f75747374616e64696e67206465627420746f20726570617900000000600082015250565b600061269f601c83612383565b91506126aa82612669565b602082019050919050565b600060208201905081810360008301526126ce81612692565b9050919050565b7f4e6f20616d6f756e7420746f2072657061790000000000000000000000000000600082015250565b600061270b601283612383565b9150612716826126d5565b602082019050919050565b6000602082019050818103600083015261273a816126fe565b9050919050565b7f52657061796d656e7420616d6f756e7420657863656564732064656274000000600082015250565b6000612777601d83612383565b915061278282612741565b602082019050919050565b600060208201905081810360008301526127a68161276a565b9050919050565b600081905092915050565b50565b60006127c86000836127ad565b91506127d3826127b8565b600082019050919050565b60006127e9826127bb565b9150819050919050565b7f4661696c656420746f207472616e7366657220457468657220746f20506f6f6c60008201527f53746f7261676500000000000000000000000000000000000000000000000000602082015250565b600061284f602783612383565b915061285a826127f3565b604082019050919050565b6000602082019050818103600083015261287e81612842565b9050919050565b7f6d617820426f72726f7765642072656163680000000000000000000000000000600082015250565b60006128bb601283612383565b91506128c682612885565b602082019050919050565b600060208201905081810360008301526128ea816128ae565b9050919050565b60006128fc82611f99565b915061290783611f99565b925082820190508082111561291f5761291e6122e1565b5b92915050565b7f426f72726f7720616d6f756e742065786365656473206c696d69740000000000600082015250565b600061295b601b83612383565b915061296682612925565b602082019050919050565b6000602082019050818103600083015261298a8161294e565b9050919050565b7f6973204f76657220383025000000000000000000000000000000000000000000600082015250565b60006129c7600b83612383565b91506129d282612991565b602082019050919050565b600060208201905081810360008301526129f6816129ba565b9050919050565b7f41646472657373204e6f7420666f756e64000000000000000000000000000000600082015250565b6000612a33601183612383565b9150612a3e826129fd565b602082019050919050565b60006020820190508181036000830152612a6281612a26565b9050919050565b7f4661696c656420746f20666f727761726420457468657220746f20506f6f6c5360008201527f746f726167650000000000000000000000000000000000000000000000000000602082015250565b6000612ac5602683612383565b9150612ad082612a69565b604082019050919050565b60006020820190508181036000830152612af481612ab8565b905091905056fea2646970667358221220cd9ddc004c787d6677f98bd3d03bace1c3f6a3be0145cce3d6eb4540e07999c564736f6c63430008180033",
  "linkReferences": {},
  "deployedLinkReferences": {}
}