{
  "_format": "hh-sol-artifact-1",
  "contractName": "PoolStorage",
  "sourceName": "contracts/PoolStorage.sol",
  "abi": [
    {
      "stateMutability": "payable",
      "type": "fallback"
    },
    {
      "inputs": [
        {
          "internalType": "address",
          "name": "_lendingPool",
          "type": "address"
        }
      ],
      "name": "getLendingPoolAddress",
      "outputs": [],
      "stateMutability": "nonpayable",
      "type": "function"
    },
    {
      "inputs": [],
      "name": "lendingPool",
      "outputs": [
        {
          "internalType": "contract LendingPool",
          "name": "",
          "type": "address"
        }
      ],
      "stateMutability": "view",
      "type": "function"
    },
    {
      "inputs": [
        {
          "internalType": "address payable",
          "name": "to",
          "type": "address"
        },
        {
          "internalType": "uint256",
          "name": "amount",
          "type": "uint256"
        },
        {
          "internalType": "bool",
          "name": "isBorrow",
          "type": "bool"
        }
      ],
      "name": "sendEther",
      "outputs": [],
      "stateMutability": "nonpayable",
      "type": "function"
    },
    {
      "inputs": [],
      "name": "totalEther",
      "outputs": [
        {
          "internalType": "uint256",
          "name": "",
          "type": "uint256"
        }
      ],
      "stateMutability": "view",
      "type": "function"
    },
    {
      "stateMutability": "payable",
      "type": "receive"
    }
  ],
  "bytecode": "0x608060405234801561001057600080fd5b50610d2f806100206000396000f3fe6080604052600436106100435760003560e01c80631d54df9c1461007a578063a59a9973146100a3578063ae6e22f1146100ce578063b75170c6146100f957610061565b366100615734600080828254610059919061071b565b925050819055005b34600080828254610072919061071b565b925050819055005b34801561008657600080fd5b506100a1600480360381019061009c9190610820565b610122565b005b3480156100af57600080fd5b506100b8610672565b6040516100c591906108d2565b60405180910390f35b3480156100da57600080fd5b506100e3610698565b6040516100f091906108fc565b60405180910390f35b34801561010557600080fd5b50610120600480360381019061011b9190610955565b61069e565b005b6000600160009054906101000a900473ffffffffffffffffffffffffffffffffffffffff1673ffffffffffffffffffffffffffffffffffffffff166321551623336040518263ffffffff1660e01b815260040161017f9190610991565b606060405180830381865afa15801561019c573d6000803e3d6000fd5b505050506040513d601f19601f820116820180604052508101906101c09190610acb565b90506000600160009054906101000a900473ffffffffffffffffffffffffffffffffffffffff1673ffffffffffffffffffffffffffffffffffffffff1663fe98145a336040518263ffffffff1660e01b815260040161021f9190610991565b606060405180830381865afa15801561023c573d6000803e3d6000fd5b505050506040513d601f19601f820116820180604052508101906102609190610b5c565b9050821561058b57600073ffffffffffffffffffffffffffffffffffffffff16826000015173ffffffffffffffffffffffffffffffffffffffff16141580156102d95750600073ffffffffffffffffffffffffffffffffffffffff16816000015173ffffffffffffffffffffffffffffffffffffffff16145b156103c157600160009054906101000a900473ffffffffffffffffffffffffffffffffffffffff1673ffffffffffffffffffffffffffffffffffffffff1663fd1c317a336040518263ffffffff1660e01b81526004016103399190610991565b602060405180830381865afa158015610356573d6000803e3d6000fd5b505050506040513d601f19601f8201168201806040525081019061037a9190610b89565b8411156103bc576040517f08c379a00000000000000000000000000000000000000000000000000000000081526004016103b390610c39565b60405180910390fd5b610527565b600073ffffffffffffffffffffffffffffffffffffffff16826000015173ffffffffffffffffffffffffffffffffffffffff16141580156104335750600073ffffffffffffffffffffffffffffffffffffffff16816000015173ffffffffffffffffffffffffffffffffffffffff1614155b1561052657600160009054906101000a900473ffffffffffffffffffffffffffffffffffffffff1673ffffffffffffffffffffffffffffffffffffffff1663fd1c317a336040518263ffffffff1660e01b81526004016104939190610991565b602060405180830381865afa1580156104b0573d6000803e3d6000fd5b505050506040513d601f19601f820116820180604052508101906104d49190610b89565b8482602001516104e4919061071b565b1115610525576040517f08c379a000000000000000000000000000000000000000000000000000000000815260040161051c90610c39565b60405180910390fd5b5b5b836000808282546105389190610c59565b925050819055508473ffffffffffffffffffffffffffffffffffffffff166108fc859081150290604051600060405180830381858888f19350505050158015610585573d6000803e3d6000fd5b5061066b565b600073ffffffffffffffffffffffffffffffffffffffff16826000015173ffffffffffffffffffffffffffffffffffffffff161461060b57838260200151101561060a576040517f08c379a000000000000000000000000000000000000000000000000000000000815260040161060190610cd9565b60405180910390fd5b5b8360008082825461061c9190610c59565b925050819055508473ffffffffffffffffffffffffffffffffffffffff166108fc859081150290604051600060405180830381858888f19350505050158015610669573d6000803e3d6000fd5b505b5050505050565b600160009054906101000a900473ffffffffffffffffffffffffffffffffffffffff1681565b60005481565b80600160006101000a81548173ffffffffffffffffffffffffffffffffffffffff021916908373ffffffffffffffffffffffffffffffffffffffff16021790555050565b6000819050919050565b7f4e487b7100000000000000000000000000000000000000000000000000000000600052601160045260246000fd5b6000610726826106e2565b9150610731836106e2565b9250828201905080821115610749576107486106ec565b5b92915050565b6000604051905090565b600080fd5b600073ffffffffffffffffffffffffffffffffffffffff82169050919050565b60006107898261075e565b9050919050565b6107998161077e565b81146107a457600080fd5b50565b6000813590506107b681610790565b92915050565b6107c5816106e2565b81146107d057600080fd5b50565b6000813590506107e2816107bc565b92915050565b60008115159050919050565b6107fd816107e8565b811461080857600080fd5b50565b60008135905061081a816107f4565b92915050565b60008060006060848603121561083957610838610759565b5b6000610847868287016107a7565b9350506020610858868287016107d3565b92505060406108698682870161080b565b9150509250925092565b6000819050919050565b600061089861089361088e8461075e565b610873565b61075e565b9050919050565b60006108aa8261087d565b9050919050565b60006108bc8261089f565b9050919050565b6108cc816108b1565b82525050565b60006020820190506108e760008301846108c3565b92915050565b6108f6816106e2565b82525050565b600060208201905061091160008301846108ed565b92915050565b60006109228261075e565b9050919050565b61093281610917565b811461093d57600080fd5b50565b60008135905061094f81610929565b92915050565b60006020828403121561096b5761096a610759565b5b600061097984828501610940565b91505092915050565b61098b81610917565b82525050565b60006020820190506109a66000830184610982565b92915050565b600080fd5b6000601f19601f8301169050919050565b7f4e487b7100000000000000000000000000000000000000000000000000000000600052604160045260246000fd5b6109fa826109b1565b810181811067ffffffffffffffff82111715610a1957610a186109c2565b5b80604052505050565b6000610a2c61074f565b9050610a3882826109f1565b919050565b600081519050610a4c81610929565b92915050565b600081519050610a61816107bc565b92915050565b600060608284031215610a7d57610a7c6109ac565b5b610a876060610a22565b90506000610a9784828501610a3d565b6000830152506020610aab84828501610a52565b6020830152506040610abf84828501610a52565b60408301525092915050565b600060608284031215610ae157610ae0610759565b5b6000610aef84828501610a67565b91505092915050565b600060608284031215610b0e57610b0d6109ac565b5b610b186060610a22565b90506000610b2884828501610a3d565b6000830152506020610b3c84828501610a52565b6020830152506040610b5084828501610a52565b60408301525092915050565b600060608284031215610b7257610b71610759565b5b6000610b8084828501610af8565b91505092915050565b600060208284031215610b9f57610b9e610759565b5b6000610bad84828501610a52565b91505092915050565b600082825260208201905092915050565b7f426f72726f7720616d6f756e74206578636565647320383025206f6620636f6c60008201527f6c61746572616c00000000000000000000000000000000000000000000000000602082015250565b6000610c23602783610bb6565b9150610c2e82610bc7565b604082019050919050565b60006020820190508181036000830152610c5281610c16565b9050919050565b6000610c64826106e2565b9150610c6f836106e2565b9250828203905081811115610c8757610c866106ec565b5b92915050565b7f496e7375666963656e742062616c616e636520746f2077697468647261770000600082015250565b6000610cc3601e83610bb6565b9150610cce82610c8d565b602082019050919050565b60006020820190508181036000830152610cf281610cb6565b905091905056fea26469706673582212202861262c95aa63a7273a846236a710737c61c01e40fba7e4df7cfb80dd59fde564736f6c63430008180033",
  "linkReferences": {},
  "deployedLinkReferences": {}
}